S01600005A6569746D657373616E6C6167652E7372656352
S11300000C943F000C946C040C9484040C945C00D9
S11300100C945C000C945C000C945C000C945C00EC
S11300200C945C000C945C000C945C000C945C00DC
S11300300C945C000C945C000C94D8030C945C004D
S11300400C945C000C945C000C945C000C945C00BC
S11300500C945C000C945C000C945C000C945C00AC
S11300600C945C000C945C009F00E3006801ED01BB
S1130070B5030602230257024602CF02FF021124EF
S11300801FBECFEFD8E0DEBFCDBF11E0A0E0B1E0EE
S1130090E8E8F3E102C005900D92AA36B107D9F75A
S11300A021E0AAE6B1E001C01D92A238B207E1F74F
S11300B00E945E000C94C2090C940000AF92BF929F
S11300C0CF92DF92EF92FF920F931F93CF93DF9320
S11300D0CDB7DEB767970FB6F894DEBF0FBECDBFBE
S11300E080917C0190917D01A0917E01B0917F016E
S11300F0803D9740A105B10564F010926B01109208
S11301006A0110927C0110927D0110927E0110927E
S11301107F0180916A0190916B01092E000CAA0B5A
S1130120BB0B40E050E02AE030E0841B950B28171D
S11301303907B0F28C5C9F4FFC010C94820610923C
S113014080011092810110926C0110926D01109245
S11301506E0110926F011092700110927101109251
S11301607201109273011092750110927401109231
S11301707701109276011092780110927901109211
S11301807A0110927B0110927C0110927D011092F1
S11301907E0110927F0180E00E940F0580E00E94A2
S11301A053050E9474050E94EC040E9430050E94CD
S11301B03B060E949C04789481E090E090936B014C
S11301C080936A01F4C20E94590660E083E00E94B1
S11301D0100680E091E00E942C0661E083E00E941A
S11301E010068AE091E00E942C061092800181E0C2
S11301F00E940F0510926C0110926D0110926E0115
S113020010926F011092700110927101109272019C
S11302101092730122C0A0906C01B0906D01C09047
S11302206E01D0906F01E0907001F0907101009127
S11302307201109173012A2D3B2D4C2D5D2D6E2DD5
S11302407F2D802F912F2F303742410551056105B5
S113025071058105910509F028F4809180018823B6
S1130260D1F201C00000A0906C01B0906D01C0906B
S11302706E01D0906F01E0907001F09071010091D7
S11302807201109173012A2D3B2D4C2D5D2D6E2D85
S11302907F2D802F912F2F30374241055105610565
S11302A071058105910541F038F083E090E0909369
S11302B06B0180936A0106C082E090E090936B0129
S11302C080936A0180E00E940F05109280016FC242
S11302D00E94590660E083E00E94100680E091E0ED
S11302E00E942C0661E083E00E94100683E191E005
S11302F00E942C061092810181E00E945305109205
S11303006C0110926D0110926E0110926F011092A7
S1130310700110927101109272011092730122C047
S1130320A0906C01B0906D01C0906E01D0906F01EF
S1130330E0907001F09071010091720110917301CD
S11303402A2D3B2D4C2D5D2D6E2D7F2D802F912F31
S11303502F3037424105510561057105810591052D
S113036009F028F4809181018823D1F201C00000B2
S1130370A0906C01B0906D01C0906E01D0906F019F
S1130380E0907001F090710100917201109173017D
S11303902A2D3B2D4C2D5D2D6E2D7F2D802F912FE1
S11303A02F303742410551056105710581059105DD
S11303B041F038F083E090E090936B0180936A0100
S11303C006C086E090E090936B0180936A0180E020
S11303D00E94530510928101EAC10E94590660E00F
S11303E083E00E9410068CE191E00E942C0661E0FB
S11303F083E00E94100682E291E00E942C0685E0D0
S113040090E090936B0180936A01D1C1000089E26E
S113041090E0FC018081882F90E080719927892BDE
S1130420B1F389E290E0FC018081882F90E0807133
S11304309927892B09F4B6C181E090E090936B0170
S113044080936A01AFC181E00E940F0580E00E94A1
S1130450530510928001109281010E94590660E0B8
S113046083E00E94100689E291E00E942C0661E07C
S113047083E00E94100682E391E00E942C0687E04C
S113048090E090936B0180936A0191C180E00E9497
S11304900F0581E00E9453051092800110928101A2
S11304A089E090E090936B0180936A0180C1000021
S11304B0809180018823E1F310926C0110926D0108
S11304C010926E0110926F011092700110927101DE
S11304D01092720110927301109280010E945906C9
S11304E060E080E00E9410068AE391E00E942C06FE
S11304F0109275011092740143C01092750110920C
S1130500740120916C0130916D0140916E01509104
S11305106F016091700170917101809172019091ED
S11305207301C90190937701809376011CC02091D7
S11305306C0130916D0140916E0150916F01609199
S11305407001709171018091720190917301809199
S11305507601909177017901E81AF90AC70190931D
S113056075018093740180918001882339F480910E
S1130570740190917501813D9740C8F210928001F9
S11305808091740190917501813D974008F4B5CF35
S113059088E090E090936B0180936A0108C1809198
S11305A08101882309F400C120916C0130916D010F
S11305B040916E0150916F016091700170917101D1
S11305C08091720190917301DA01C90180937801DD
S11305D090937901A0937A01B0937B0180E00E940B
S11305E00F0580E00E945305109281011092800152
S11305F08AE090E090936B0180936A01D5C00E94D9
S1130600590660E080E00E9410068BE491E00E94AD
S11306102C0661E082E00E9410068091780190919E
S11306207901A0917A01B0917B0120E63AEE40E095
S113063050E0BC01CD010E946306DA01C9019A832E
S1130640898389819A819C01990F440B550B80EA17
S113065095E1DC010E948B069B01AC01809178013D
S113066090917901A0917A01B0917B01820F931F3F
S1130670A41FB51F8093780190937901A0937A0108
S1130680B0937B018091780190917901A0917A01D6
S1130690B0917B0128EE33E040E050E0BC01CD0195
S11306A00E946306DA01C9019C838B83209178013F
S11306B03091790140917A0150917B01EB81FC8169
S11306C068EE73E0E69FC001E79F900DF69F900DE2
S11306D01124092E000CAA0BBB0B79018A01E81A1C
S11306E0F90A0A0B1B0BD801C70180937801909378
S11306F07901A0937A01B0937B0180917801909164
S11307007901A0917A01B0917B019E838D838E81C2
S11307108F938D818F938C818F938B818F938A811B
S11307208F9389818F938AE591E0892F8F938AE54E
S113073091E08F93CE010796292F2F938F930E94D8
S1130740D8060DB71EB7065F1F4F0FB6F894DEBF6D
S11307500FBECDBFCE0107960E942C0684E090E028
S113076090936B0180936A0122C0000089E290E0BB
S1130770FC018081882F90E080719927892BB1F347
S113078089E290E0FC018081882F90E080719927B4
S1130790892B61F086E090E090936B0180936A016D
S11307A0000004C000009CCC00009ACC000098CC4F
S11307B01F920F9200905F000F921124AF92BF928C
S11307C0CF92DF92EF92FF920F931F932F933F9359
S11307D04F935F936F937F938F939F93AF93BF9345
S11307E0EF93FF93CF93DF93CDB7DEB7A0906C0167
S11307F0B0906D01C0906E01D0906F01E0907001D7
S1130800F090710100917201109173012A2D3B2D1A
S11308104C2D5D2D6E2D7F2D802F912FA1E00E94F8
S11308209006A22EB32EC42ED52EE62EF72E082F18
S1130830192FA0926C01B0926D01C0926E01D092FA
S11308406F01E0927001F0927101009372011093B4
S1130850730189E290E0FC018081882F90E080712F
S11308609927892BA1F080917C0190917D01A09121
S11308707E01B0917F010196A11DB11D80937C0181
S113088090937D01A0937E01B0937F0108C01092E4
S11308907C0110927D0110927E0110927F01000074
S11308A0DF91CF91FF91EF91BF91AF919F918F9184
S11308B07F916F915F914F913F912F911F910F9174
S11308C0FF90EF90DF90CF90BF90AF900F90009289
S11308D05F000F901F9018951F920F9200905F0079
S11308E00F9211248F93CF93DF93CDB7DEB781E0BE
S11308F0809380010000DF91CF918F910F9000923F
S11309005F000F901F9018951F920F9200905F0048
S11309100F9211248F93CF93DF93CDB7DEB781E08D
S1130920809381010000DF91CF918F910F9000920D
S11309305F000F901F901895CF93DF93CDB7DEB76C
S113094084E490E024E430E0F90120812160FC019A
S1130950208384E490E024E430E0F90120812260E3
S1130960FC01208385E490E025E430E0F901208156
S1130970277FFC01208386E490E0FC01108285E45B
S113098090E025E430E0F90120812B7FFC012083F5
S113099085E490E025E430E0F90120812160FC0148
S11309A0208385E490E025E430E0F9012081226091
S11309B0FC01208387E490E029EFFC0120838EE68C
S11309C090E02EE630E0F90120812260FC012083D2
S11309D00000DF91CF910895CF93DF93CDB7DEB7B9
S11309E08AE290E02AE230E0F90120812B7FFC01C9
S11309F0208389E690E029E630E0F9012081226035
S1130A00FC01208389E690E029E630E0F9012081A9
S1130A102160FC0120830000DF91CF910895CF93E2
S1130A20DF931F92CDB7DEB789838981882351F084
S1130A308DE390E02DE330E0F90120812160FC0199
S1130A40208309C08DE390E02DE330E0F90120819B
S1130A502E7FFC01208300000F90DF91CF91089539
S1130A60CF93DF93CDB7DEB78AE290E02AE230E09D
S1130A70F9012081277FFC01208389E690E029E6A3
S1130A8030E0F90120812860FC01208389E690E0B0
S1130A9029E630E0F90120812460FC012083000074
S1130AA0DF91CF910895CF93DF931F92CDB7DEB737
S1130AB089838981813051F48DE390E02DE330E026
S1130AC0F90120812260FC01208309C08DE390E0BC
S1130AD02DE330E0F90120812D7FFC01208300000B
S1130AE00F90DF91CF910895CF93DF93CDB7DEB709
S1130AF08AE290E02AE230E0F90120812F7EFC01B5
S1130B0020830000DF91CF9108953A9A399A389A58
S1130B102FEF89EF90E0215080409040E1F700C032
S1130B20000008955598569857982098219822982F
S1130B30239824980895559A569A579A209A219A58
S1130B40229A239A249A089589B199B199B193B1BB
S1130B5093B193B193B193B185FB882780F908953C
S1130B6080FF02C05D9A01C05D9881FF02C05E9A59
S1130B7001C05E9882FF02C05F9A01C05F9883FF44
S1130B8002C0289A01C0289884FF02C0299A01C093
S1130B90299885FF02C02A9A01C02A9886FF02C0BC
S1130BA02B9A01C02B98882314F42C9A08952C981E
S1130BB00895429A8FE39CE90197F1F700C0000081
S1130BC0429808950E949205419A409802C00E945A
S1130BD0D9050E94A4058823D4F30E949B05089597
S1130BE0CF93C82F0E94E2058C2F0E94B005419834
S1130BF040980E94D90580E00E94B005CF910895E5
S1130C00CF93C82F0E94E2058C2F0E94B005419813
S1130C10409A0E94D90580E00E94B005CF910895C2
S1130C20CF93DF9300D000D0CDB7DEB7198290E424
S1130C309A8394E19B8394E59C83FE01E60FF11D66
S1130C4080589181890F0E94F0050F900F900F90AA
S1130C500F90DF91CF910895CF93DF93EC018881BA
S1130C60882331F021960E94000689918111FBCFDF
S1130C70DF91CF9108950E94850581E00E94F005DF
S1130C808FE19EE40197F1F700C0000088E30E9421
S1130C90F0058FE19EE40197F1F700C000008CE0BD
S1130CA00E94F0058FE19EE40197F1F700C0000077
S1130CB0089581E00E94F0058FE19EE40197F1F729
S1130CC000C000000895052E97FB1EF400940E94B6
S1130CD07A0657FD07D00E949C0607FC03D04EF409
S1130CE00C947A0650954095309521953F4F4F4F7F
S1130CF05F4F089590958095709561957F4F8F4FC4
S1130D009F4F0895EE0FFF1F0590F491E02D099475
S1130D10B7FF0C94BE060E94BE06821B930B089577
S1130D200024A7FD00942A0F301D401D501D601D96
S1130D30701D801D901D0895A1E21A2EAA1BBB1BD5
S1130D40FD010DC0AA1FBB1FEE1FFF1FA217B30793
S1130D50E407F50720F0A21BB30BE40BF50B661FA9
S1130D60771F881F991F1A9469F76095709580956D
S1130D7090959B01AC01BD01CF0108950E94C90665
S1130D80A59F900DB49F900DA49F800D911D1124DB
S1130D900895A29FB001B39FC001A39F700D811D50
S1130DA01124911DB29F700D811D1124911D089570
S1130DB0AEE0B0E0EEEDF6E00C9499090D891E89E1
S1130DC086E08C831A8309838FEF9FE79E838D834C
S1130DD0AE01475E5F4F6F89788DCE0101960E9408
S1130DE0FA06EF81F885E00FF11F10822E96E4E0F9
S1130DF00C94B509ABE0B0E0E0E0F7E00C948B09AB
S1130E006C017B018A01FC0117821682838181FFB8
S1130E10CCC1CE0101963C01F6019381F70193FD0B
S1130E20859193FF81917F01882309F4BAC18532AA
S1130E3039F493FD859193FF81917F01853229F4E3
S1130E40B60190E00E94F108E7CF912C212C312CBF
S1130E50FFE1F315D8F08B3279F038F4803279F071
S1130E608332A1F4232D20611DC08D3261F08033C3
S1130E7069F4232D216016C0832D8260382EE32D62
S1130E80E4603E2E2AC0F32DF8601DC037FC2DC04F
S1130E9020ED280F2A3040F08E32B9F436FC81C19F
S1130EA0232D2064322E19C036FE06C08AE0989E97
S1130EB0200D1124922E11C0EAE02E9E200D112443
S1130EC0222EF32DF0623F2E08C08C3621F4832DA0
S1130ED08068382E02C0883641F4F70193FD85916D
S1130EE093FF81917F018111B3CF982F9F7D9554FA
S1130EF0933028F40C5F1F4F9FE399830DC0833612
S1130F0031F0833771F0833509F059C021C0F801FD
S1130F10808189830E5F1F4F88248394912C530111
S1130F2013C02801F2E04F0E511CF801A080B180DB
S1130F3036FE03C0692D70E002C06FEF7FEFC5017C
S1130F400E94E6084C018201F32DFF773F2E16C064
S1130F50280122E0420E511CF801A080B18036FE27
S1130F6003C0692D70E002C06FEF7FEFC5010E94DE
S1130F70DB084C01F32DF0683F2E820133FC1BC0CB
S1130F80822D90E088169906B0F4B60180E290E0D4
S1130F900E94F1082A94F4CFF50137FC859137FEBD
S1130FA081915F01B60190E00E94F10821102A941A
S1130FB021E0821A91088114910471F7E8C0843603
S1130FC011F0893641F5F80137FE07C0608171815F
S1130FD0828193810C5F1F4F08C060817181072E4D
S1130FE0000C880B990B0E5F1F4FF32DFF763F2EDD
S1130FF097FF09C090958095709561957F4F8F4FAD
S11310009F4FF0683F2E2AE030E0A3010E942D0993
S1131010882E861845C0853731F4232D2F7EB22EB5
S11310202AE030E025C0932D997FB92E8F36C1F088
S113103018F4883579F0B5C0803719F0883721F075
S1131040B0C0E92FE061BE2EB4FE0DC0FB2DF460EC
S1131050BF2E09C034FE0AC0292F2660B22E06C056
S113106028E030E005C020E130E002C020E132E0B9
S1131070F801B7FE07C060817181828193810C5FA2
S11310801F4F06C06081718180E090E00E5F1F4FAA
S1131090A3010E942D09882E8618FB2DFF773F2E71
S11310A036FE0DC0232D2E7FA22E891458F434FE53
S11310B00BC032FC09C0832D8E7EA82E05C0B82C2F
S11310C0A32C03C0B82C01C0B92CA4FE0FC0FE0190
S11310D0E80DF11D8081803321F49A2D997EA92E8B
S11310E009C0A2FE06C0B394B39404C08A2D8678C6
S11310F009F0B394A3FC11C0A0FE06C0B21488F496
S1131100280C922C9B180EC0B21460F4B60180E235
S113111090E00E94F108B394F7CFB21418F42B189E
S113112002C0982C212CA4FE10C0B60180E390E0EC
S11311300E94F108A2FE17C0A1FC03C088E790E05A
S113114002C088E590E0B6010CC08A2D867859F07B
S1131150A1FE02C08BE201C080E2A7FC8DE2B601D1
S113116090E00E94F108891438F4B60180E390E01D
S11311700E94F1089A94F7CF8A94F301E80DF11DC7
S11311808081B60190E00E94F1088110F5CF222001
S113119009F442CEB60180E290E00E94F1082A945C
S11311A0F6CFF6018681978102C08FEF9FEF2B96D1
S11311B0E2E10C94A709FC01059061507040011014
S11311C0D8F7809590958E0F9F1F0895FC0161506C
S11311D0704001900110D8F7809590958E0F9F1F55
S11311E008950F931F93CF93DF93FB01238121FD78
S11311F003C08FEF9FEF2CC022FF16C0468157819A
S1131200248135814217530744F4A081B1819D01A3
S11312102F5F3F4F318320838C93268137812F5F4B
S11312203F4F3783268314C08B01EC01FB010084FC
S1131230F185E02D0995892BE1F6D80116968D915B
S11312409C911797019617969C938E931697CE01AF
S1131250DF91CF911F910F910895FA01AA272830A9
S113126051F1203181F1E8946F936E7F6E5F7F4F6F
S11312708F4F9F4FAF4FB1E03ED0B4E03CD0670FEB
S1131280781F891F9A1FA11D680F791F8A1F911D3E
S1131290A11D6A0F711D811D911DA11D20D009F48E
S11312A068943F912AE0269F11243019305D3193D0
S11312B0DEF6CF010895462F4770405D4193B3E0B9
S11312C00FD0C9F7F6CF462F4F70405D4A3318F060
S11312D0495D31FD4052419302D0A9F7EACFB4E011
S11312E0A6959795879577956795BA95C9F70097C9
S11312F06105710508959B01AC010A2E069457956A
S1131300479537952795BA95C9F7620F731F841FC0
S1131310951FA01D08952F923F924F925F926F9256
S11313207F928F929F92AF92BF92CF92DF92EF9271
S1131330FF920F931F93CF93DF93CDB7DEB7CA1BF2
S1131340DB0B0FB6F894DEBF0FBECDBF09942A881D
S1131350398848885F846E847D848C849B84AA84C5
S1131360B984C884DF80EE80FD800C811B81AA8152
S1131370B981CE0FD11D0FB6F894DEBF0FBECDBF1D
S10B1380ED010895F894FFCF7C
S1131388496E746572727570740073656E736F72EA
S113139820310073656E736F722032004572726F6C
S11313A8720073656E736F7200526561647920749C
S11313B86F006D656173757265004D656173757253
S11313C8696E672074696D652E2E004D65617375AD
S11313D87265642074696D653A00253032693A256E
S10D13E83032692E2530336900000D
S9030000FC
